{
  "_format": "hh-sol-artifact-1",
  "contractName": "MyEpicNFT",
  "sourceName": "contracts/MyEpicNFT.sol",
  "abi": [
    {
      "inputs": [],
      "stateMutability": "nonpayable",
      "type": "constructor"
    },
    {
      "anonymous": false,
      "inputs": [
        {
          "indexed": true,
          "internalType": "address",
          "name": "owner",
          "type": "address"
        },
        {
          "indexed": true,
          "internalType": "address",
          "name": "approved",
          "type": "address"
        },
        {
          "indexed": true,
          "internalType": "uint256",
          "name": "tokenId",
          "type": "uint256"
        }
      ],
      "name": "Approval",
      "type": "event"
    },
    {
      "anonymous": false,
      "inputs": [
        {
          "indexed": true,
          "internalType": "address",
          "name": "owner",
          "type": "address"
        },
        {
          "indexed": true,
          "internalType": "address",
          "name": "operator",
          "type": "address"
        },
        {
          "indexed": false,
          "internalType": "bool",
          "name": "approved",
          "type": "bool"
        }
      ],
      "name": "ApprovalForAll",
      "type": "event"
    },
    {
      "anonymous": false,
      "inputs": [
        {
          "indexed": false,
          "internalType": "address",
          "name": "sender",
          "type": "address"
        },
        {
          "indexed": false,
          "internalType": "uint256",
          "name": "tokenId",
          "type": "uint256"
        }
      ],
      "name": "NewEpicNFTMinted",
      "type": "event"
    },
    {
      "anonymous": false,
      "inputs": [
        {
          "indexed": true,
          "internalType": "address",
          "name": "from",
          "type": "address"
        },
        {
          "indexed": true,
          "internalType": "address",
          "name": "to",
          "type": "address"
        },
        {
          "indexed": true,
          "internalType": "uint256",
          "name": "tokenId",
          "type": "uint256"
        }
      ],
      "name": "Transfer",
      "type": "event"
    },
    {
      "inputs": [
        {
          "internalType": "address",
          "name": "to",
          "type": "address"
        },
        {
          "internalType": "uint256",
          "name": "tokenId",
          "type": "uint256"
        }
      ],
      "name": "approve",
      "outputs": [],
      "stateMutability": "nonpayable",
      "type": "function"
    },
    {
      "inputs": [
        {
          "internalType": "address",
          "name": "owner",
          "type": "address"
        }
      ],
      "name": "balanceOf",
      "outputs": [
        {
          "internalType": "uint256",
          "name": "",
          "type": "uint256"
        }
      ],
      "stateMutability": "view",
      "type": "function"
    },
    {
      "inputs": [
        {
          "internalType": "uint256",
          "name": "tokenId",
          "type": "uint256"
        }
      ],
      "name": "getApproved",
      "outputs": [
        {
          "internalType": "address",
          "name": "",
          "type": "address"
        }
      ],
      "stateMutability": "view",
      "type": "function"
    },
    {
      "inputs": [],
      "name": "getTotalMintedNFTs",
      "outputs": [
        {
          "components": [
            {
              "internalType": "uint256",
              "name": "totalMintedNFTs",
              "type": "uint256"
            },
            {
              "internalType": "uint256",
              "name": "maxNFTs",
              "type": "uint256"
            }
          ],
          "internalType": "struct MyEpicNFT.TotalNFTsStruct",
          "name": "",
          "type": "tuple"
        }
      ],
      "stateMutability": "view",
      "type": "function"
    },
    {
      "inputs": [
        {
          "internalType": "address",
          "name": "owner",
          "type": "address"
        },
        {
          "internalType": "address",
          "name": "operator",
          "type": "address"
        }
      ],
      "name": "isApprovedForAll",
      "outputs": [
        {
          "internalType": "bool",
          "name": "",
          "type": "bool"
        }
      ],
      "stateMutability": "view",
      "type": "function"
    },
    {
      "inputs": [],
      "name": "makeAnEpicNFT",
      "outputs": [],
      "stateMutability": "nonpayable",
      "type": "function"
    },
    {
      "inputs": [],
      "name": "name",
      "outputs": [
        {
          "internalType": "string",
          "name": "",
          "type": "string"
        }
      ],
      "stateMutability": "view",
      "type": "function"
    },
    {
      "inputs": [
        {
          "internalType": "uint256",
          "name": "tokenId",
          "type": "uint256"
        }
      ],
      "name": "ownerOf",
      "outputs": [
        {
          "internalType": "address",
          "name": "",
          "type": "address"
        }
      ],
      "stateMutability": "view",
      "type": "function"
    },
    {
      "inputs": [
        {
          "internalType": "uint256",
          "name": "tokenId",
          "type": "uint256"
        }
      ],
      "name": "pickRandomColor",
      "outputs": [
        {
          "internalType": "string",
          "name": "",
          "type": "string"
        }
      ],
      "stateMutability": "view",
      "type": "function"
    },
    {
      "inputs": [
        {
          "internalType": "uint256",
          "name": "tokenId",
          "type": "uint256"
        }
      ],
      "name": "pickRandomFirstWord",
      "outputs": [
        {
          "internalType": "string",
          "name": "",
          "type": "string"
        }
      ],
      "stateMutability": "view",
      "type": "function"
    },
    {
      "inputs": [
        {
          "internalType": "uint256",
          "name": "tokenId",
          "type": "uint256"
        }
      ],
      "name": "pickRandomSecondWord",
      "outputs": [
        {
          "internalType": "string",
          "name": "",
          "type": "string"
        }
      ],
      "stateMutability": "view",
      "type": "function"
    },
    {
      "inputs": [
        {
          "internalType": "uint256",
          "name": "tokenId",
          "type": "uint256"
        }
      ],
      "name": "pickRandomThirdWord",
      "outputs": [
        {
          "internalType": "string",
          "name": "",
          "type": "string"
        }
      ],
      "stateMutability": "view",
      "type": "function"
    },
    {
      "inputs": [
        {
          "internalType": "address",
          "name": "from",
          "type": "address"
        },
        {
          "internalType": "address",
          "name": "to",
          "type": "address"
        },
        {
          "internalType": "uint256",
          "name": "tokenId",
          "type": "uint256"
        }
      ],
      "name": "safeTransferFrom",
      "outputs": [],
      "stateMutability": "nonpayable",
      "type": "function"
    },
    {
      "inputs": [
        {
          "internalType": "address",
          "name": "from",
          "type": "address"
        },
        {
          "internalType": "address",
          "name": "to",
          "type": "address"
        },
        {
          "internalType": "uint256",
          "name": "tokenId",
          "type": "uint256"
        },
        {
          "internalType": "bytes",
          "name": "_data",
          "type": "bytes"
        }
      ],
      "name": "safeTransferFrom",
      "outputs": [],
      "stateMutability": "nonpayable",
      "type": "function"
    },
    {
      "inputs": [
        {
          "internalType": "address",
          "name": "operator",
          "type": "address"
        },
        {
          "internalType": "bool",
          "name": "approved",
          "type": "bool"
        }
      ],
      "name": "setApprovalForAll",
      "outputs": [],
      "stateMutability": "nonpayable",
      "type": "function"
    },
    {
      "inputs": [
        {
          "internalType": "bytes4",
          "name": "interfaceId",
          "type": "bytes4"
        }
      ],
      "name": "supportsInterface",
      "outputs": [
        {
          "internalType": "bool",
          "name": "",
          "type": "bool"
        }
      ],
      "stateMutability": "view",
      "type": "function"
    },
    {
      "inputs": [],
      "name": "symbol",
      "outputs": [
        {
          "internalType": "string",
          "name": "",
          "type": "string"
        }
      ],
      "stateMutability": "view",
      "type": "function"
    },
    {
      "inputs": [
        {
          "internalType": "uint256",
          "name": "tokenId",
          "type": "uint256"
        }
      ],
      "name": "tokenURI",
      "outputs": [
        {
          "internalType": "string",
          "name": "",
          "type": "string"
        }
      ],
      "stateMutability": "view",
      "type": "function"
    },
    {
      "inputs": [
        {
          "internalType": "address",
          "name": "from",
          "type": "address"
        },
        {
          "internalType": "address",
          "name": "to",
          "type": "address"
        },
        {
          "internalType": "uint256",
          "name": "tokenId",
          "type": "uint256"
        }
      ],
      "name": "transferFrom",
      "outputs": [],
      "stateMutability": "nonpayable",
      "type": "function"
    }
  ],
  "bytecode": "0x6080604052600a60085560405180610100016040528060d38152602001620054d460d39139600990805190602001906200003b929190620010f6565b50604051806080016040528060568152602001620055a760569139600a90805190602001906200006d929190620010f6565b506040518061028001604052806040518060400160405280600681526020017f4e617275746f000000000000000000000000000000000000000000000000000081525081526020016040518060400160405280600681526020017f536173756b65000000000000000000000000000000000000000000000000000081525081526020016040518060400160405280600681526020017f53616b757261000000000000000000000000000000000000000000000000000081525081526020016040518060400160405280600781526020017f4b616b617368690000000000000000000000000000000000000000000000000081525081526020016040518060400160405280600581526020017f476161726100000000000000000000000000000000000000000000000000000081525081526020016040518060400160405280600381526020017f4c6565000000000000000000000000000000000000000000000000000000000081525081526020016040518060400160405280600681526020017f43686f756a69000000000000000000000000000000000000000000000000000081525081526020016040518060400160405280600981526020017f5368696b616d617275000000000000000000000000000000000000000000000081525081526020016040518060400160405280600681526020017f54656d617269000000000000000000000000000000000000000000000000000081525081526020016040518060400160405280600481526020017f4b6962610000000000000000000000000000000000000000000000000000000081525081526020016040518060400160405280600681526020017f48696e617461000000000000000000000000000000000000000000000000000081525081526020016040518060400160405280600781526020017f4b7572656e61690000000000000000000000000000000000000000000000000081525081526020016040518060400160405280600581526020017f5368696e6f00000000000000000000000000000000000000000000000000000081525081526020016040518060400160405280600381526020017f496e6f000000000000000000000000000000000000000000000000000000000081525081526020016040518060400160405280600581526020017f4173756d6100000000000000000000000000000000000000000000000000000081525081526020016040518060400160405280600481526020017f4e656a690000000000000000000000000000000000000000000000000000000081525081526020016040518060400160405280600681526020017f54656e74656e000000000000000000000000000000000000000000000000000081525081526020016040518060400160405280600381526020017f476169000000000000000000000000000000000000000000000000000000000081525081526020016040518060400160405280600681526020017f4d6164617261000000000000000000000000000000000000000000000000000081525081526020016040518060400160405280600981526020017f486173686972616d610000000000000000000000000000000000000000000000815250815250600b9060146200052692919062001187565b506040518061022001604052806040518060400160405280600581526020017f526561637400000000000000000000000000000000000000000000000000000081525081526020016040518060400160405280600681526020017f4e6f64656a73000000000000000000000000000000000000000000000000000081525081526020016040518060400160405280600381526020017f504850000000000000000000000000000000000000000000000000000000000081525081526020016040518060400160405280600481526020017f527562790000000000000000000000000000000000000000000000000000000081525081526020016040518060400160405280600781526020017f4c61726176656c0000000000000000000000000000000000000000000000000081525081526020016040518060400160405280600881526020017f536f6c696469747900000000000000000000000000000000000000000000000081525081526020016040518060400160405280600981526020017f576f72647072657373000000000000000000000000000000000000000000000081525081526020016040518060400160405280600781526020017f416e67756c61720000000000000000000000000000000000000000000000000081525081526020016040518060400160405280600381526020017f567565000000000000000000000000000000000000000000000000000000000081525081526020016040518060400160405280600681526020017f5376656c7465000000000000000000000000000000000000000000000000000081525081526020016040518060400160405280600a81526020017f4a6176617363726970740000000000000000000000000000000000000000000081525081526020016040518060400160405280600681526020017f507974686f6e000000000000000000000000000000000000000000000000000081525081526020016040518060400160405280600481526020017f4e6573740000000000000000000000000000000000000000000000000000000081525081526020016040518060400160405280600481526020017f4e4558540000000000000000000000000000000000000000000000000000000081525081526020016040518060400160405280600481526020017f4e5558540000000000000000000000000000000000000000000000000000000081525081526020016040518060400160405280600481526020017f4a6176610000000000000000000000000000000000000000000000000000000081525081526020016040518060400160405280600981526020017f415350444f544e45540000000000000000000000000000000000000000000000815250815250600c9060116200092e929190620011ee565b506040518061026001604052806040518060400160405280600881526020017f4461656e7972697300000000000000000000000000000000000000000000000081525081526020016040518060400160405280600381526020017f4a6f6e000000000000000000000000000000000000000000000000000000000081525081526020016040518060400160405280600681526020017f456464617264000000000000000000000000000000000000000000000000000081525081526020016040518060400160405280600c81526020017f4c6974746c6566696e676572000000000000000000000000000000000000000081525081526020016040518060400160405280600781526020017f436174656c796e0000000000000000000000000000000000000000000000000081525081526020016040518060400160405280600681526020017f436572736569000000000000000000000000000000000000000000000000000081525081526020016040518060400160405280600581526020017f4a61696d6500000000000000000000000000000000000000000000000000000081525081526020016040518060400160405280600681526020017f547972696f6e000000000000000000000000000000000000000000000000000081525081526020016040518060400160405280600681526020017f547977696e6e000000000000000000000000000000000000000000000000000081525081526020016040518060400160405280600481526020017f417279610000000000000000000000000000000000000000000000000000000081525081526020016040518060400160405280600781526020017f4a6f66667265790000000000000000000000000000000000000000000000000081525081526020016040518060400160405280600481526020017f4272616e0000000000000000000000000000000000000000000000000000000081525081526020016040518060400160405280600581526020017f53616e736100000000000000000000000000000000000000000000000000000081525081526020016040518060400160405280600681526020017f52616d736579000000000000000000000000000000000000000000000000000081525081526020016040518060400160405280600481526020017f526f62620000000000000000000000000000000000000000000000000000000081525081526020016040518060400160405280600681526020017f477265676f72000000000000000000000000000000000000000000000000000081525081526020016040518060400160405280600581526020017f566172797300000000000000000000000000000000000000000000000000000081525081526020016040518060400160405280600681526020017f526f62657274000000000000000000000000000000000000000000000000000081525081526020016040518060400160405280600781526020017f5374616e6e697300000000000000000000000000000000000000000000000000815250815250600d90601362000dac92919062001255565b506040518060c001604052806040518060400160405280600381526020017f726564000000000000000000000000000000000000000000000000000000000081525081526020016040518060400160405280600781526020017f233038433241380000000000000000000000000000000000000000000000000081525081526020016040518060400160405280600581526020017f626c61636b00000000000000000000000000000000000000000000000000000081525081526020016040518060400160405280600681526020017f79656c6c6f77000000000000000000000000000000000000000000000000000081525081526020016040518060400160405280600481526020017f626c75650000000000000000000000000000000000000000000000000000000081525081526020016040518060400160405280600581526020017f677265656e000000000000000000000000000000000000000000000000000000815250815250600e90600662000f2a929190620012bc565b5034801562000f3857600080fd5b506040518060400160405280600581526020017f486964616e0000000000000000000000000000000000000000000000000000008152506040518060400160405280600a81526020017f4c4f52444a415348494e00000000000000000000000000000000000000000000815250816000908051906020019062000fbd929190620010f6565b50806001908051906020019062000fd6929190620010f6565b505050620010246040518060400160405280601e81526020017f54686973206973206d79204e465420636f6e74726163742e20576f61682100008152506200102a60201b620013b61760201c565b620014dd565b620010ca81604051602401620010419190620013f1565b6040516020818303038152906040527f41304fac000000000000000000000000000000000000000000000000000000007bffffffffffffffffffffffffffffffffffffffffffffffffffffffff19166020820180517bffffffffffffffffffffffffffffffffffffffffffffffffffffffff8381831617835250505050620010cd60201b60201c565b50565b60008151905060006a636f6e736f6c652e6c6f679050602083016000808483855afa5050505050565b828054620011049062001467565b90600052602060002090601f01602090048101928262001128576000855562001174565b82601f106200114357805160ff191683800117855562001174565b8280016001018555821562001174579182015b828111156200117357825182559160200191906001019062001156565b5b50905062001183919062001323565b5090565b828054828255906000526020600020908101928215620011db579160200282015b82811115620011da578251829080519060200190620011c9929190620010f6565b5091602001919060010190620011a8565b5b509050620011ea919062001342565b5090565b82805482825590600052602060002090810192821562001242579160200282015b828111156200124157825182908051906020019062001230929190620010f6565b50916020019190600101906200120f565b5b50905062001251919062001342565b5090565b828054828255906000526020600020908101928215620012a9579160200282015b82811115620012a857825182908051906020019062001297929190620010f6565b509160200191906001019062001276565b5b509050620012b8919062001342565b5090565b82805482825590600052602060002090810192821562001310579160200282015b828111156200130f578251829080519060200190620012fe929190620010f6565b5091602001919060010190620012dd565b5b5090506200131f919062001342565b5090565b5b808211156200133e57600081600090555060010162001324565b5090565b5b808211156200136657600081816200135c91906200136a565b5060010162001343565b5090565b508054620013789062001467565b6000825580601f106200138c5750620013ad565b601f016020900490600052602060002090810190620013ac919062001323565b5b50565b6000620013bd8262001415565b620013c9818562001420565b9350620013db81856020860162001431565b620013e681620014cc565b840191505092915050565b600060208201905081810360008301526200140d8184620013b0565b905092915050565b600081519050919050565b600082825260208201905092915050565b60005b838110156200145157808201518184015260208101905062001434565b8381111562001461576000848401525b50505050565b600060028204905060018216806200148057607f821691505b602082108114156200149757620014966200149d565b5b50919050565b7f4e487b7100000000000000000000000000000000000000000000000000000000600052602260045260246000fd5b6000601f19601f8301169050919050565b613fe780620014ed6000396000f3fe608060405234801561001057600080fd5b50600436106101215760003560e01c80636352211e116100ad578063b88d4fde11610071578063b88d4fde14610340578063c575757a1461035c578063c87b56dd1461038c578063de9d132f146103bc578063e985e9c5146103c657610121565b80636352211e1461027657806370a08231146102a657806395d89b41146102d6578063a22cb465146102f4578063b187301f1461031057610121565b806323b872dd116100f457806323b872dd146101c05780632de38d68146101dc57806342842e0e1461020c578063514dc8c6146102285780635a2e65041461025857610121565b806301ffc9a71461012657806306fdde0314610156578063081812fc14610174578063095ea7b3146101a4575b600080fd5b610140600480360381019061013b9190612898565b6103f6565b60405161014d91906130a7565b60405180910390f35b61015e6104d8565b60405161016b91906130c2565b60405180910390f35b61018e600480360381019061018991906128ea565b61056a565b60405161019b9190613017565b60405180910390f35b6101be60048036038101906101b9919061285c565b6105ef565b005b6101da60048036038101906101d59190612756565b610707565b005b6101f660048036038101906101f191906128ea565b610767565b60405161020391906130c2565b60405180910390f35b61022660048036038101906102219190612756565b610885565b005b610242600480360381019061023d91906128ea565b6108a5565b60405161024f91906130c2565b60405180910390f35b6102606109c3565b60405161026d9190613372565b60405180910390f35b610290600480360381019061028b91906128ea565b610a35565b60405161029d9190613017565b60405180910390f35b6102c060048036038101906102bb91906126f1565b610ae7565b6040516102cd919061338d565b60405180910390f35b6102de610b9f565b6040516102eb91906130c2565b60405180910390f35b61030e60048036038101906103099190612820565b610c31565b005b61032a600480360381019061032591906128ea565b610c47565b60405161033791906130c2565b60405180910390f35b61035a600480360381019061035591906127a5565b610d65565b005b610376600480360381019061037191906128ea565b610dc7565b60405161038391906130c2565b60405180910390f35b6103a660048036038101906103a191906128ea565b610ee5565b6040516103b391906130c2565b60405180910390f35b6103c4611037565b005b6103e060048036038101906103db919061271a565b611322565b6040516103ed91906130a7565b60405180910390f35b60007f80ac58cd000000000000000000000000000000000000000000000000000000007bffffffffffffffffffffffffffffffffffffffffffffffffffffffff1916827bffffffffffffffffffffffffffffffffffffffffffffffffffffffff191614806104c157507f5b5e139f000000000000000000000000000000000000000000000000000000007bffffffffffffffffffffffffffffffffffffffffffffffffffffffff1916827bffffffffffffffffffffffffffffffffffffffffffffffffffffffff1916145b806104d157506104d08261144f565b5b9050919050565b6060600080546104e790613621565b80601f016020809104026020016040519081016040528092919081815260200182805461051390613621565b80156105605780601f1061053557610100808354040283529160200191610560565b820191906000526020600020905b81548152906001019060200180831161054357829003601f168201915b5050505050905090565b6000610575826114b9565b6105b4576040517f08c379a00000000000000000000000000000000000000000000000000000000081526004016105ab906132d2565b60405180910390fd5b6004600083815260200190815260200160002060009054906101000a900473ffffffffffffffffffffffffffffffffffffffff169050919050565b60006105fa82610a35565b90508073ffffffffffffffffffffffffffffffffffffffff168373ffffffffffffffffffffffffffffffffffffffff16141561066b576040517f08c379a000000000000000000000000000000000000000000000000000000000815260040161066290613312565b60405180910390fd5b8073ffffffffffffffffffffffffffffffffffffffff1661068a611525565b73ffffffffffffffffffffffffffffffffffffffff1614806106b957506106b8816106b3611525565b611322565b5b6106f8576040517f08c379a00000000000000000000000000000000000000000000000000000000081526004016106ef90613212565b60405180910390fd5b610702838361152d565b505050565b610718610712611525565b826115e6565b610757576040517f08c379a000000000000000000000000000000000000000000000000000000000815260040161074e90613332565b60405180910390fd5b6107628383836116c4565b505050565b6060600061079b6107778461192b565b6040516020016107879190612fb1565b604051602081830303815290604052611ad8565b9050600b80549050816107ae91906136cd565b9050600b81815481106107ea577f4e487b7100000000000000000000000000000000000000000000000000000000600052603260045260246000fd5b9060005260206000200180546107ff90613621565b80601f016020809104026020016040519081016040528092919081815260200182805461082b90613621565b80156108785780601f1061084d57610100808354040283529160200191610878565b820191906000526020600020905b81548152906001019060200180831161085b57829003601f168201915b5050505050915050919050565b6108a083838360405180602001604052806000815250610d65565b505050565b606060006108d96108b58461192b565b6040516020016108c59190612ff5565b604051602081830303815290604052611ad8565b9050600e80549050816108ec91906136cd565b9050600e8181548110610928577f4e487b7100000000000000000000000000000000000000000000000000000000600052603260045260246000fd5b90600052602060002001805461093d90613621565b80601f016020809104026020016040519081016040528092919081815260200182805461096990613621565b80156109b65780601f1061098b576101008083540402835291602001916109b6565b820191906000526020600020905b81548152906001019060200180831161099957829003601f168201915b5050505050915050919050565b6109cb612563565b60006109d76007611b0b565b9050610a186040518060400160405280601781526020017f57652068617665202564206d696e746564204e4654732100000000000000000081525082611b19565b604051806040016040528082815260200160085481525091505090565b6000806002600084815260200190815260200160002060009054906101000a900473ffffffffffffffffffffffffffffffffffffffff169050600073ffffffffffffffffffffffffffffffffffffffff168173ffffffffffffffffffffffffffffffffffffffff161415610ade576040517f08c379a0000000000000000000000000000000000000000000000000000000008152600401610ad590613252565b60405180910390fd5b80915050919050565b60008073ffffffffffffffffffffffffffffffffffffffff168273ffffffffffffffffffffffffffffffffffffffff161415610b58576040517f08c379a0000000000000000000000000000000000000000000000000000000008152600401610b4f90613232565b60405180910390fd5b600360008373ffffffffffffffffffffffffffffffffffffffff1673ffffffffffffffffffffffffffffffffffffffff168152602001908152602001600020549050919050565b606060018054610bae90613621565b80601f0160208091040260200160405190810160405280929190818152602001828054610bda90613621565b8015610c275780601f10610bfc57610100808354040283529160200191610c27565b820191906000526020600020905b815481529060010190602001808311610c0a57829003601f168201915b5050505050905090565b610c43610c3c611525565b8383611bb5565b5050565b60606000610c7b610c578461192b565b604051602001610c679190612f4a565b604051602081830303815290604052611ad8565b9050600c8054905081610c8e91906136cd565b9050600c8181548110610cca577f4e487b7100000000000000000000000000000000000000000000000000000000600052603260045260246000fd5b906000526020600020018054610cdf90613621565b80601f0160208091040260200160405190810160405280929190818152602001828054610d0b90613621565b8015610d585780601f10610d2d57610100808354040283529160200191610d58565b820191906000526020600020905b815481529060010190602001808311610d3b57829003601f168201915b5050505050915050919050565b610d76610d70611525565b836115e6565b610db5576040517f08c379a0000000000000000000000000000000000000000000000000000000008152600401610dac90613332565b60405180910390fd5b610dc184848484611d22565b50505050565b60606000610dfb610dd78461192b565b604051602001610de79190612f28565b604051602081830303815290604052611ad8565b9050600d8054905081610e0e91906136cd565b9050600d8181548110610e4a577f4e487b7100000000000000000000000000000000000000000000000000000000600052603260045260246000fd5b906000526020600020018054610e5f90613621565b80601f0160208091040260200160405190810160405280929190818152602001828054610e8b90613621565b8015610ed85780601f10610ead57610100808354040283529160200191610ed8565b820191906000526020600020905b815481529060010190602001808311610ebb57829003601f168201915b5050505050915050919050565b6060610ef0826114b9565b610f2f576040517f08c379a0000000000000000000000000000000000000000000000000000000008152600401610f26906132b2565b60405180910390fd5b6000600660008481526020019081526020016000208054610f4f90613621565b80601f0160208091040260200160405190810160405280929190818152602001828054610f7b90613621565b8015610fc85780601f10610f9d57610100808354040283529160200191610fc8565b820191906000526020600020905b815481529060010190602001808311610fab57829003601f168201915b505050505090506000610fd9611d7e565b9050600081511415610fef578192505050611032565b60008251111561102457808260405160200161100c929190612e68565b60405160208183030381529060405292505050611032565b61102d84611d95565b925050505b919050565b60006110436007611b0b565b90506008548110611089576040517f08c379a000000000000000000000000000000000000000000000000000000000815260040161108090613352565b60405180910390fd5b600061109482610767565b905060006110a183610c47565b905060006110ae84610dc7565b905060008383836040516020016110c793929190612e8c565b604051602081830303815290604052905060006110e3866108a5565b90506000600982600a856040516020016111009493929190612ebd565b604051602081830303815290604052905060006111458461112084611e3c565b604051602001611131929190612f6c565b604051602081830303815290604052611e3c565b90506111856040518060400160405280601581526020017f0a2d2d2d2d2d2d2d2d2d2d2d2d2d2d2d2d2d2d2d2d00000000000000000000008152506113b6565b61118e826113b6565b6111cc6040518060400160405280601581526020017f2d2d2d2d2d2d2d2d2d2d2d2d2d2d2d2d2d2d2d2d0a00000000000000000000008152506113b6565b6111d63389611ffa565b6000816040516020016111e99190612fd3565b60405160208183030381529060405290506112386040518060400160405280601581526020017f0a2d2d2d2d2d2d2d2d2d2d2d2d2d2d2d2d2d2d2d2d00000000000000000000008152506113b6565b611241816113b6565b611269816040516020016112559190612f06565b6040516020818303038152906040526113b6565b6112a76040518060400160405280601581526020017f2d2d2d2d2d2d2d2d2d2d2d2d2d2d2d2d2d2d2d2d0a00000000000000000000008152506113b6565b6112b18982612018565b6112d4604051806060016040528060258152602001613f4d602591398a3361208c565b6112de600761212b565b7febb98688741ffa4c7589bf325de30cf7becb63de567842e1ccdb6cb949fdc82c338a60405161130f92919061307e565b60405180910390a1505050505050505050565b6000600560008473ffffffffffffffffffffffffffffffffffffffff1673ffffffffffffffffffffffffffffffffffffffff16815260200190815260200160002060008373ffffffffffffffffffffffffffffffffffffffff1673ffffffffffffffffffffffffffffffffffffffff16815260200190815260200160002060009054906101000a900460ff16905092915050565b61144c816040516024016113ca91906130c2565b6040516020818303038152906040527f41304fac000000000000000000000000000000000000000000000000000000007bffffffffffffffffffffffffffffffffffffffffffffffffffffffff19166020820180517bffffffffffffffffffffffffffffffffffffffffffffffffffffffff8381831617835250505050612141565b50565b60007f01ffc9a7000000000000000000000000000000000000000000000000000000007bffffffffffffffffffffffffffffffffffffffffffffffffffffffff1916827bffffffffffffffffffffffffffffffffffffffffffffffffffffffff1916149050919050565b60008073ffffffffffffffffffffffffffffffffffffffff166002600084815260200190815260200160002060009054906101000a900473ffffffffffffffffffffffffffffffffffffffff1673ffffffffffffffffffffffffffffffffffffffff1614159050919050565b600033905090565b816004600083815260200190815260200160002060006101000a81548173ffffffffffffffffffffffffffffffffffffffff021916908373ffffffffffffffffffffffffffffffffffffffff160217905550808273ffffffffffffffffffffffffffffffffffffffff166115a083610a35565b73ffffffffffffffffffffffffffffffffffffffff167f8c5be1e5ebec7d5bd14f71427d1e84f3dd0314c0f7b2291e5b200ac8c7c3b92560405160405180910390a45050565b60006115f1826114b9565b611630576040517f08c379a0000000000000000000000000000000000000000000000000000000008152600401611627906131f2565b60405180910390fd5b600061163b83610a35565b90508073ffffffffffffffffffffffffffffffffffffffff168473ffffffffffffffffffffffffffffffffffffffff16148061167d575061167c8185611322565b5b806116bb57508373ffffffffffffffffffffffffffffffffffffffff166116a38461056a565b73ffffffffffffffffffffffffffffffffffffffff16145b91505092915050565b8273ffffffffffffffffffffffffffffffffffffffff166116e482610a35565b73ffffffffffffffffffffffffffffffffffffffff161461173a576040517f08c379a000000000000000000000000000000000000000000000000000000000815260040161173190613172565b60405180910390fd5b600073ffffffffffffffffffffffffffffffffffffffff168273ffffffffffffffffffffffffffffffffffffffff1614156117aa576040517f08c379a00000000000000000000000000000000000000000000000000000000081526004016117a1906131b2565b60405180910390fd5b6117b583838361216a565b6117c060008261152d565b6001600360008573ffffffffffffffffffffffffffffffffffffffff1673ffffffffffffffffffffffffffffffffffffffff16815260200190815260200160002060008282546118109190613537565b925050819055506001600360008473ffffffffffffffffffffffffffffffffffffffff1673ffffffffffffffffffffffffffffffffffffffff16815260200190815260200160002060008282546118679190613456565b92505081905550816002600083815260200190815260200160002060006101000a81548173ffffffffffffffffffffffffffffffffffffffff021916908373ffffffffffffffffffffffffffffffffffffffff160217905550808273ffffffffffffffffffffffffffffffffffffffff168473ffffffffffffffffffffffffffffffffffffffff167fddf252ad1be2c89b69c2b068fc378daa952ba7f163c4a11628f55a4df523b3ef60405160405180910390a461192683838361216f565b505050565b60606000821415611973576040518060400160405280600181526020017f30000000000000000000000000000000000000000000000000000000000000008152509050611ad3565b600082905060005b600082146119a557808061198e90613684565b915050600a8261199e91906134ac565b915061197b565b60008167ffffffffffffffff8111156119e7577f4e487b7100000000000000000000000000000000000000000000000000000000600052604160045260246000fd5b6040519080825280601f01601f191660200182016040528015611a195781602001600182028036833780820191505090505b5090505b60008514611acc57600182611a329190613537565b9150600a85611a4191906136cd565b6030611a4d9190613456565b60f81b818381518110611a89577f4e487b7100000000000000000000000000000000000000000000000000000000600052603260045260246000fd5b60200101907effffffffffffffffffffffffffffffffffffffffffffffffffffffffffffff1916908160001a905350600a85611ac591906134ac565b9450611a1d565b8093505050505b919050565b600081604051602001611aeb9190612e51565b6040516020818303038152906040528051906020012060001c9050919050565b600081600001549050919050565b611bb18282604051602401611b2f9291906130e4565b6040516020818303038152906040527f9710a9d0000000000000000000000000000000000000000000000000000000007bffffffffffffffffffffffffffffffffffffffffffffffffffffffff19166020820180517bffffffffffffffffffffffffffffffffffffffffffffffffffffffff8381831617835250505050612141565b5050565b8173ffffffffffffffffffffffffffffffffffffffff168373ffffffffffffffffffffffffffffffffffffffff161415611c24576040517f08c379a0000000000000000000000000000000000000000000000000000000008152600401611c1b906131d2565b60405180910390fd5b80600560008573ffffffffffffffffffffffffffffffffffffffff1673ffffffffffffffffffffffffffffffffffffffff16815260200190815260200160002060008473ffffffffffffffffffffffffffffffffffffffff1673ffffffffffffffffffffffffffffffffffffffff16815260200190815260200160002060006101000a81548160ff0219169083151502179055508173ffffffffffffffffffffffffffffffffffffffff168373ffffffffffffffffffffffffffffffffffffffff167f17307eab39ab6107e8899845ad3d59bd9653f200f220920489ca2b5937696c3183604051611d1591906130a7565b60405180910390a3505050565b611d2d8484846116c4565b611d3984848484612174565b611d78576040517f08c379a0000000000000000000000000000000000000000000000000000000008152600401611d6f90613152565b60405180910390fd5b50505050565b606060405180602001604052806000815250905090565b6060611da0826114b9565b611ddf576040517f08c379a0000000000000000000000000000000000000000000000000000000008152600401611dd6906132f2565b60405180910390fd5b6000611de9611d7e565b90506000815111611e095760405180602001604052806000815250611e34565b80611e138461192b565b604051602001611e24929190612e68565b6040516020818303038152906040525b915050919050565b60606000825190506000811415611e655760405180602001604052806000815250915050611ff5565b60006003600283611e769190613456565b611e8091906134ac565b6004611e8c91906134dd565b90506000602082611e9d9190613456565b67ffffffffffffffff811115611edc577f4e487b7100000000000000000000000000000000000000000000000000000000600052604160045260246000fd5b6040519080825280601f01601f191660200182016040528015611f0e5781602001600182028036833780820191505090505b5090506000604051806060016040528060408152602001613f72604091399050600181016020830160005b86811015611fb25760038101905062ffffff818a015116603f8160121c168401518060081b905060ff603f83600c1c1686015116810190508060081b905060ff603f8360061c1686015116810190508060081b905060ff603f831686015116810190508060e01b90508084526004840193505050611f39565b506003860660018114611fcc5760028114611fdc57611fe7565b613d3d60f01b6002830352611fe7565b603d60f81b60018303525b508484525050819450505050505b919050565b61201482826040518060200160405280600081525061230b565b5050565b612021826114b9565b612060576040517f08c379a000000000000000000000000000000000000000000000000000000000815260040161205790613272565b60405180910390fd5b8060066000848152602001908152602001600020908051906020019061208792919061257d565b505050565b6121268383836040516024016120a493929190613114565b6040516020818303038152906040527fe3849f79000000000000000000000000000000000000000000000000000000007bffffffffffffffffffffffffffffffffffffffffffffffffffffffff19166020820180517bffffffffffffffffffffffffffffffffffffffffffffffffffffffff8381831617835250505050612141565b505050565b6001816000016000828254019250508190555050565b60008151905060006a636f6e736f6c652e6c6f679050602083016000808483855afa5050505050565b505050565b505050565b60006121958473ffffffffffffffffffffffffffffffffffffffff16612366565b156122fe578373ffffffffffffffffffffffffffffffffffffffff1663150b7a026121be611525565b8786866040518563ffffffff1660e01b81526004016121e09493929190613032565b602060405180830381600087803b1580156121fa57600080fd5b505af192505050801561222b57506040513d601f19601f8201168201806040525081019061222891906128c1565b60015b6122ae573d806000811461225b576040519150601f19603f3d011682016040523d82523d6000602084013e612260565b606091505b506000815114156122a6576040517f08c379a000000000000000000000000000000000000000000000000000000000815260040161229d90613152565b60405180910390fd5b805181602001fd5b63150b7a0260e01b7bffffffffffffffffffffffffffffffffffffffffffffffffffffffff1916817bffffffffffffffffffffffffffffffffffffffffffffffffffffffff191614915050612303565b600190505b949350505050565b6123158383612389565b6123226000848484612174565b612361576040517f08c379a000000000000000000000000000000000000000000000000000000000815260040161235890613152565b60405180910390fd5b505050565b6000808273ffffffffffffffffffffffffffffffffffffffff163b119050919050565b600073ffffffffffffffffffffffffffffffffffffffff168273ffffffffffffffffffffffffffffffffffffffff1614156123f9576040517f08c379a00000000000000000000000000000000000000000000000000000000081526004016123f090613292565b60405180910390fd5b612402816114b9565b15612442576040517f08c379a000000000000000000000000000000000000000000000000000000000815260040161243990613192565b60405180910390fd5b61244e6000838361216a565b6001600360008473ffffffffffffffffffffffffffffffffffffffff1673ffffffffffffffffffffffffffffffffffffffff168152602001908152602001600020600082825461249e9190613456565b92505081905550816002600083815260200190815260200160002060006101000a81548173ffffffffffffffffffffffffffffffffffffffff021916908373ffffffffffffffffffffffffffffffffffffffff160217905550808273ffffffffffffffffffffffffffffffffffffffff16600073ffffffffffffffffffffffffffffffffffffffff167fddf252ad1be2c89b69c2b068fc378daa952ba7f163c4a11628f55a4df523b3ef60405160405180910390a461255f6000838361216f565b5050565b604051806040016040528060008152602001600081525090565b82805461258990613621565b90600052602060002090601f0160209004810192826125ab57600085556125f2565b82601f106125c457805160ff19168380011785556125f2565b828001600101855582156125f2579182015b828111156125f15782518255916020019190600101906125d6565b5b5090506125ff9190612603565b5090565b5b8082111561261c576000816000905550600101612604565b5090565b600061263361262e846133cd565b6133a8565b90508281526020810184848401111561264b57600080fd5b6126568482856135df565b509392505050565b60008135905061266d81613ef0565b92915050565b60008135905061268281613f07565b92915050565b60008135905061269781613f1e565b92915050565b6000815190506126ac81613f1e565b92915050565b600082601f8301126126c357600080fd5b81356126d3848260208601612620565b91505092915050565b6000813590506126eb81613f35565b92915050565b60006020828403121561270357600080fd5b60006127118482850161265e565b91505092915050565b6000806040838503121561272d57600080fd5b600061273b8582860161265e565b925050602061274c8582860161265e565b9150509250929050565b60008060006060848603121561276b57600080fd5b60006127798682870161265e565b935050602061278a8682870161265e565b925050604061279b868287016126dc565b9150509250925092565b600080600080608085870312156127bb57600080fd5b60006127c98782880161265e565b94505060206127da8782880161265e565b93505060406127eb878288016126dc565b925050606085013567ffffffffffffffff81111561280857600080fd5b612814878288016126b2565b91505092959194509250565b6000806040838503121561283357600080fd5b60006128418582860161265e565b925050602061285285828601612673565b9150509250929050565b6000806040838503121561286f57600080fd5b600061287d8582860161265e565b925050602061288e858286016126dc565b9150509250929050565b6000602082840312156128aa57600080fd5b60006128b884828501612688565b91505092915050565b6000602082840312156128d357600080fd5b60006128e18482850161269d565b91505092915050565b6000602082840312156128fc57600080fd5b600061290a848285016126dc565b91505092915050565b61291c8161356b565b82525050565b61292b8161357d565b82525050565b600061293c82613413565b6129468185613429565b93506129568185602086016135ee565b61295f816137ba565b840191505092915050565b60006129758261341e565b61297f818561343a565b935061298f8185602086016135ee565b612998816137ba565b840191505092915050565b60006129ae8261341e565b6129b8818561344b565b93506129c88185602086016135ee565b80840191505092915050565b600081546129e181613621565b6129eb818661344b565b94506001821660008114612a065760018114612a1757612a4a565b60ff19831686528186019350612a4a565b612a20856133fe565b60005b83811015612a4257815481890152600182019150602081019050612a23565b838801955050505b50505092915050565b6000612a6060258361344b565b9150612a6b826137cb565b602582019050919050565b6000612a8360328361343a565b9150612a8e8261381a565b604082019050919050565b6000612aa660258361343a565b9150612ab182613869565b604082019050919050565b6000612ac9601c8361343a565b9150612ad4826138b8565b602082019050919050565b6000612aec600a8361344b565b9150612af7826138e1565b600a82019050919050565b6000612b0f60248361343a565b9150612b1a8261390a565b604082019050919050565b6000612b3260198361343a565b9150612b3d82613959565b602082019050919050565b6000612b5560638361344b565b9150612b6082613982565b606382019050919050565b6000612b78600b8361344b565b9150612b8382613a1d565b600b82019050919050565b6000612b9b602c8361343a565b9150612ba682613a46565b604082019050919050565b6000612bbe600d8361344b565b9150612bc982613a95565b600d82019050919050565b6000612be160388361343a565b9150612bec82613abe565b604082019050919050565b6000612c04602a8361343a565b9150612c0f82613b0d565b604082019050919050565b6000612c2760298361343a565b9150612c3282613b5c565b604082019050919050565b6000612c4a602e8361343a565b9150612c5582613bab565b604082019050919050565b6000612c6d60028361344b565b9150612c7882613bfa565b600282019050919050565b6000612c9060208361343a565b9150612c9b82613c23565b602082019050919050565b6000612cb360318361343a565b9150612cbe82613c4c565b604082019050919050565b6000612cd6602c8361343a565b9150612ce182613c9b565b604082019050919050565b6000612cf9602f8361343a565b9150612d0482613cea565b604082019050919050565b6000612d1c600a8361344b565b9150612d2782613d39565b600a82019050919050565b6000612d3f60218361343a565b9150612d4a82613d62565b604082019050919050565b6000612d62600a8361344b565b9150612d6d82613db1565b600a82019050919050565b6000612d85601d8361344b565b9150612d9082613dda565b601d82019050919050565b6000612da860318361343a565b9150612db382613e03565b604082019050919050565b6000612dcb60418361343a565b9150612dd682613e52565b606082019050919050565b6000612dee60058361344b565b9150612df982613ec7565b600582019050919050565b604082016000820151612e1a6000850182612e33565b506020820151612e2d6020850182612e33565b50505050565b612e3c816135d5565b82525050565b612e4b816135d5565b82525050565b6000612e5d82846129a3565b915081905092915050565b6000612e7482856129a3565b9150612e8082846129a3565b91508190509392505050565b6000612e9882866129a3565b9150612ea482856129a3565b9150612eb082846129a3565b9150819050949350505050565b6000612ec982876129d4565b9150612ed582866129a3565b9150612ee182856129d4565b9150612eed82846129a3565b9150612ef882612bb1565b915081905095945050505050565b6000612f1182612a53565b9150612f1d82846129a3565b915081905092915050565b6000612f3382612adf565b9150612f3f82846129a3565b915081905092915050565b6000612f5582612b6b565b9150612f6182846129a3565b915081905092915050565b6000612f7782612d0f565b9150612f8382856129a3565b9150612f8e82612b48565b9150612f9a82846129a3565b9150612fa582612c60565b91508190509392505050565b6000612fbc82612d55565b9150612fc882846129a3565b915081905092915050565b6000612fde82612d78565b9150612fea82846129a3565b915081905092915050565b600061300082612de1565b915061300c82846129a3565b915081905092915050565b600060208201905061302c6000830184612913565b92915050565b60006080820190506130476000830187612913565b6130546020830186612913565b6130616040830185612e42565b81810360608301526130738184612931565b905095945050505050565b60006040820190506130936000830185612913565b6130a06020830184612e42565b9392505050565b60006020820190506130bc6000830184612922565b92915050565b600060208201905081810360008301526130dc818461296a565b905092915050565b600060408201905081810360008301526130fe818561296a565b905061310d6020830184612e42565b9392505050565b6000606082019050818103600083015261312e818661296a565b905061313d6020830185612e42565b61314a6040830184612913565b949350505050565b6000602082019050818103600083015261316b81612a76565b9050919050565b6000602082019050818103600083015261318b81612a99565b9050919050565b600060208201905081810360008301526131ab81612abc565b9050919050565b600060208201905081810360008301526131cb81612b02565b9050919050565b600060208201905081810360008301526131eb81612b25565b9050919050565b6000602082019050818103600083015261320b81612b8e565b9050919050565b6000602082019050818103600083015261322b81612bd4565b9050919050565b6000602082019050818103600083015261324b81612bf7565b9050919050565b6000602082019050818103600083015261326b81612c1a565b9050919050565b6000602082019050818103600083015261328b81612c3d565b9050919050565b600060208201905081810360008301526132ab81612c83565b9050919050565b600060208201905081810360008301526132cb81612ca6565b9050919050565b600060208201905081810360008301526132eb81612cc9565b9050919050565b6000602082019050818103600083015261330b81612cec565b9050919050565b6000602082019050818103600083015261332b81612d32565b9050919050565b6000602082019050818103600083015261334b81612d9b565b9050919050565b6000602082019050818103600083015261336b81612dbe565b9050919050565b60006040820190506133876000830184612e04565b92915050565b60006020820190506133a26000830184612e42565b92915050565b60006133b26133c3565b90506133be8282613653565b919050565b6000604051905090565b600067ffffffffffffffff8211156133e8576133e761378b565b5b6133f1826137ba565b9050602081019050919050565b60008190508160005260206000209050919050565b600081519050919050565b600081519050919050565b600082825260208201905092915050565b600082825260208201905092915050565b600081905092915050565b6000613461826135d5565b915061346c836135d5565b9250827fffffffffffffffffffffffffffffffffffffffffffffffffffffffffffffffff038211156134a1576134a06136fe565b5b828201905092915050565b60006134b7826135d5565b91506134c2836135d5565b9250826134d2576134d161372d565b5b828204905092915050565b60006134e8826135d5565b91506134f3836135d5565b9250817fffffffffffffffffffffffffffffffffffffffffffffffffffffffffffffffff048311821515161561352c5761352b6136fe565b5b828202905092915050565b6000613542826135d5565b915061354d836135d5565b9250828210156135605761355f6136fe565b5b828203905092915050565b6000613576826135b5565b9050919050565b60008115159050919050565b60007fffffffff0000000000000000000000000000000000000000000000000000000082169050919050565b600073ffffffffffffffffffffffffffffffffffffffff82169050919050565b6000819050919050565b82818337600083830152505050565b60005b8381101561360c5780820151818401526020810190506135f1565b8381111561361b576000848401525b50505050565b6000600282049050600182168061363957607f821691505b6020821081141561364d5761364c61375c565b5b50919050565b61365c826137ba565b810181811067ffffffffffffffff8211171561367b5761367a61378b565b5b80604052505050565b600061368f826135d5565b91507fffffffffffffffffffffffffffffffffffffffffffffffffffffffffffffffff8214156136c2576136c16136fe565b5b600182019050919050565b60006136d8826135d5565b91506136e3836135d5565b9250826136f3576136f261372d565b5b828206905092915050565b7f4e487b7100000000000000000000000000000000000000000000000000000000600052601160045260246000fd5b7f4e487b7100000000000000000000000000000000000000000000000000000000600052601260045260246000fd5b7f4e487b7100000000000000000000000000000000000000000000000000000000600052602260045260246000fd5b7f4e487b7100000000000000000000000000000000000000000000000000000000600052604160045260246000fd5b6000601f19601f8301169050919050565b7f68747470733a2f2f6e6674707265766965772e30786465762e636f6465732f3f60008201527f636f64653d000000000000000000000000000000000000000000000000000000602082015250565b7f4552433732313a207472616e7366657220746f206e6f6e20455243373231526560008201527f63656976657220696d706c656d656e7465720000000000000000000000000000602082015250565b7f4552433732313a207472616e736665722066726f6d20696e636f72726563742060008201527f6f776e6572000000000000000000000000000000000000000000000000000000602082015250565b7f4552433732313a20746f6b656e20616c7265616479206d696e74656400000000600082015250565b7f54484952445f574f524400000000000000000000000000000000000000000000600082015250565b7f4552433732313a207472616e7366657220746f20746865207a65726f2061646460008201527f7265737300000000000000000000000000000000000000000000000000000000602082015250565b7f4552433732313a20617070726f766520746f2063616c6c657200000000000000600082015250565b7f222c20226465736372697074696f6e223a20224120686967686c79206163636c60008201527f61696d656420636f6c6c656374696f6e206f6620737175617265732e222c202260208201527f696d616765223a2022646174613a696d6167652f7376672b786d6c3b6261736560408201527f36342c0000000000000000000000000000000000000000000000000000000000606082015250565b7f5345434f4e445f574f5244000000000000000000000000000000000000000000600082015250565b7f4552433732313a206f70657261746f7220717565727920666f72206e6f6e657860008201527f697374656e7420746f6b656e0000000000000000000000000000000000000000602082015250565b7f3c2f746578743e3c2f7376673e00000000000000000000000000000000000000600082015250565b7f4552433732313a20617070726f76652063616c6c6572206973206e6f74206f7760008201527f6e6572206e6f7220617070726f76656420666f7220616c6c0000000000000000602082015250565b7f4552433732313a2062616c616e636520717565727920666f7220746865207a6560008201527f726f206164647265737300000000000000000000000000000000000000000000602082015250565b7f4552433732313a206f776e657220717565727920666f72206e6f6e657869737460008201527f656e7420746f6b656e0000000000000000000000000000000000000000000000602082015250565b7f45524337323155524953746f726167653a2055524920736574206f66206e6f6e60008201527f6578697374656e7420746f6b656e000000000000000000000000000000000000602082015250565b7f227d000000000000000000000000000000000000000000000000000000000000600082015250565b7f4552433732313a206d696e7420746f20746865207a65726f2061646472657373600082015250565b7f45524337323155524953746f726167653a2055524920717565727920666f722060008201527f6e6f6e6578697374656e7420746f6b656e000000000000000000000000000000602082015250565b7f4552433732313a20617070726f76656420717565727920666f72206e6f6e657860008201527f697374656e7420746f6b656e0000000000000000000000000000000000000000602082015250565b7f4552433732314d657461646174613a2055524920717565727920666f72206e6f60008201527f6e6578697374656e7420746f6b656e0000000000000000000000000000000000602082015250565b7f7b226e616d65223a202200000000000000000000000000000000000000000000600082015250565b7f4552433732313a20617070726f76616c20746f2063757272656e74206f776e6560008201527f7200000000000000000000000000000000000000000000000000000000000000602082015250565b7f46495253545f574f524400000000000000000000000000000000000000000000600082015250565b7f646174613a6170706c69636174696f6e2f6a736f6e3b6261736536342c000000600082015250565b7f4552433732313a207472616e736665722063616c6c6572206973206e6f74206f60008201527f776e6572206e6f7220617070726f766564000000000000000000000000000000602082015250565b7f536f7272792c20746865726520617265206e6f206d6f726520656e747269657360008201527f20746f206f776e20616e204e465420696e207468697320636f6c6c656374696f60208201527f6e00000000000000000000000000000000000000000000000000000000000000604082015250565b7f434f4c4f52000000000000000000000000000000000000000000000000000000600082015250565b613ef98161356b565b8114613f0457600080fd5b50565b613f108161357d565b8114613f1b57600080fd5b50565b613f2781613589565b8114613f3257600080fd5b50565b613f3e816135d5565b8114613f4957600080fd5b5056fe416e204e465420772f20494420257320686173206265656e206d696e74656420746f2025734142434445464748494a4b4c4d4e4f505152535455565758595a6162636465666768696a6b6c6d6e6f707172737475767778797a303132333435363738392b2fa26469706673582212200064f6f90628e49cd83d96e33bf499d18f92c69df53d5e8d95b00fe7669ca86664736f6c634300080400333c73766720786d6c6e733d27687474703a2f2f7777772e77332e6f72672f323030302f73766727207072657365727665417370656374526174696f3d27784d696e594d696e206d656574272076696577426f783d273020302033353020333530273e3c7374796c653e2e62617365207b2066696c6c3a2077686974653b20666f6e742d66616d696c793a2073657269663b20666f6e742d73697a653a20323470783b207d3c2f7374796c653e3c726563742077696474683d273130302527206865696768743d2731303025272066696c6c3d27272f3e3c7465787420783d273530252720793d273530252720636c6173733d27626173652720646f6d696e616e742d626173656c696e653d276d6964646c652720746578742d616e63686f723d276d6964646c65273e",
  "linkReferences": {},
  "deployedLinkReferences": {}
}